:060000000A128A11DE2F36
:1000E0007834003450340034831203138C117608B2
:1000F00093008C1908007928831203138C1183163E
:100100000313111483128C1908008228831203131D
:100110008C1183160313111583128C1908008C2877
:10012000F300F201731C98287008F1007108F207BF
:100130000310F00D0310F30C7308031D92287208CE
:100140000800831603130612831203130612EF30FE
:10015000F000AA28F00BA928AD28AE2883160313B7
:1001600006164230F000F00BB3280000EF30F0002C
:10017000B928F00BB828BC28BD280800F401F50107
:10018000701CC8287208F4070318F50A7308F507ED
:1001900001300310F20DF30DFF3E031DC92801309D
:1001A0000310F10CF00CFF3E031DD0287008710401
:1001B000031DC0287508F1007408F0000800FA005B
:1001C0000A128A117C200A128A1183120313410831
:1001D000F7004008F6000A128A1174200A128A11E8
:1001E0000030F600F7000A128A1174200A128A11F0
:1001F0007A08F800F9017808F6007908F7000A1281
:100200008A1174200A128A110A128A1186200800A3
:10021000F201F3010830730203183B29831603131C
:1002200006128312031306121529162983160313C7
:1002300006160330F000F00B1B291E29831203134E
:10024000061E2F290130F000730A28290310F00D33
:10025000FF3E031D26297008F1007108F2073530B2
:10026000F000F00B31290130F0007008F30708307E
:100270007302031C0E298316031306167208080066
:10028000F100F2010830720203187A290130F000FF
:10029000720A4C290310F00DFF3E031D4A29700815
:1002A00071050319632983160313061283120313BE
:1002B00006125A295B298316031306163530F000FF
:1002C000F00B60297229831603130612831203139D
:1002D00006123530F000F00B6B2983160313061657
:1002E000712972290130F0007008F207083072029B
:1002F000031C46298316031306160800AE300A12A3
:100300008A11DF200A128A118D300A128A11DF2029
:100310000A128A1114300A128A11DF200A128A1175
:1003200020300A128A11DF200A128A1100300A12C4
:100330008A11DF200A128A11A1300A128A11DF20E5
:100340000A128A11C8300A128A11DF200A128A1191
:10035000DA300A128A11DF200A128A1112300A12C8
:100360008A11DF200A128A1181300A128A11DF20D5
:100370000A128A119F300A128A11DF200A128A118A
:10038000AF300A128A11DF20080083120313A10183
:10039000FC1FD129FB09FC09FB0A0319FC0AA10176
:1003A000A10AFA1FD829F909FA09F90A0319FA0A60
:1003B00079087A040319052AA001A00AFA1BEC297E
:1003C00001300310F90DFA0DFF3E031DE129013044
:1003D000FD007D08A007DE297A087C02031DF229B2
:1003E00079087B02031CFA297908FB027A08031CAE
:1003F000FC03FC0201300310FA0CF90CFF3E031D54
:10040000FB290130A002031DEC29210803190D2A44
:10041000FB09FC09FB0A0319FC0A7C08FA007B08AB
:10042000F9000800063083120313A6002608FB001B
:100430000230A7002708FC0041300A128A115E230F
:100440000A128A11063083120313A6002608FB0045
:100450000330A7002708FC004C300A128A115E23E3
:100460000A128A11063083120313A6002608FB0025
:100470000430A7002708FC0041300A128A115E23CD
:100480000A128A11063083120313A6002608FB0005
:100490000530A7002708FC0052300A128A115E239B
:1004A0000A128A11063083120313A6002608FB00E5
:1004B0000630A7002708FC004D300A128A115E237F
:1004C0000800FD0108307D02031808007D08B03ED9
:1004D0000A128A11DF200A128A1100300A128A11C8
:1004E000DF200A128A1110300A128A11DF200A1244
:1004F0008A110A128A117C200A128A1183120313AC
:100500004108F7004008F6000A128A1174200A1206
:100510008A114030F6000030F7000A128A11742068
:100520000A128A11FC0180307C020318A72A0030CD
:10053000F600F7000A128A1174200A128A1101309B
:10054000FB007B08FC0780307C02031C972A0A1200
:100550008A1186200A128A110130FB007B08FD07F0
:10056000622A0A30F9000030FA000A30F000003048
:10057000F100831203134308F3004208F2000A1249
:100580008A1105230A128A117108FC007008FB0009
:100590000A128A11C5210A128A11790883120313DB
:1005A000A6002608BC000A30F9000030FA00430813
:1005B000FC004208FB000A128A11C5210A128A11A6
:1005C000790883120313A6002608BD000630A60092
:1005D0002608FB000930A7002708FC003C08303E35
:1005E0000A128A115E230A128A110630831203133B
:1005F000A6002608FB000A30A7002708FC003D08DB
:10060000303E0A128A115E230800F601F11F0F2BFB
:10061000F009F109F00A0319F10AF601F60AF31FCD
:100620001A2BF209F309F20A0319F30A0130F40054
:100630007408F606F701F801700871040319512BCC
:10064000F501F50AF11B302B01300310F00DF10D0F
:10065000FF3E031D252B0130F4007408F507222B03
:1006600001300310F70DF80DFF3E031D312B71080B
:100670007302031D3D2B70087202031C462B700889
:10068000F2027108031CF303F30277140130031024
:10069000F10CF00CFF3E031D472B0130F502031D4A
:1006A000302B76080319592BF709F809F70A0319B3
:1006B000F80A7808F1007708F000080083120313A5
:1006C000A40021300A128A11DF200A128A117C0844
:1006D00083120313A00002300310A00DFF3E031D80
:1006E0006C2B0310200D0A128A11DF200A128A11C6
:1006F0007C0883120313A00002300310A00DFF3EFC
:10070000031D7D2B0310200D043E0A128A11DF20E9
:100710000A128A1122300A128A11DF200A128A1163
:100720007B080A128A11DF200A128A117B080A123A
:100730008A11DF200A128A110A128A117C200A12F9
:100740008A11831203134108F7004008F6000A12C9
:100750008A1174200A128A114030F6000030F70026
:100760000A128A1174200A128A1183120313A50136
:10077000053025020318F82B2408E03EF000FF3076
:1007800003180030F1000530F2000030F3000A12C7
:100790008A11BE200A128A118312031325087007DA
:1007A000A0000030031801307107A1008930210733
:1007B000FF00FC30200784000318FF0A0A128A1584
:1007C00000200A128A11A200A3012208F6002308C1
:1007D000F7000A128A1174200A128A11013083125A
:1007E0000313A0002008A50705302502031CBC2B1D
:1007F0000A128A11862008000A128A11A1200A1200
:100800008A11CC300A128A1140210A128A11BE3094
:100810000A128A1140210A128A110A128A11082129
:100820000A128A1183120313A800A9012808AB0039
:100830002908AC000A128A1108210A128A118312AF
:100840000313A800A9012808AD002908AE000A1268
:100850008A11A1200A128A110A128A11A1200A12F1
:100860008A11CC300A128A1140210A128A114430AE
:100870000A128A1140210A128A11831203132E08C8
:10088000A9002D08A8002808A900A8012B082807FE
:10089000B2002C0803182C0A2907B300B31F5E2CE2
:1008A000AF01AF0A3209A8003309A900A80A031949
:1008B000A90A2808B0002908B100632CAF01330849
:1008C000B1003208B0000F303005F00000303105C3
:1008D000F1000A30F2000030F3000A128A11BE2043
:1008E0000A128A11700883120313A8007108A90064
:1008F00004300310A90CA80CFF3E031D792C280816
:10090000AA002A08BB00300E0F39BE00310EF039A4
:10091000BE04310E0F39BF000A30F9000030FA0072
:100920000A30F0000030F1003F08F3003E08F2000A
:100930000A128A1105230A128A117108FC00700834
:10094000FB000A128A11C5210A128A117908831242
:100950000313A8002808B9000A30F9000030FA0093
:100960003F08FC003E08FB000A128A11C5210A124A
:100970008A11790883120313A8002808BA002F08E7
:100980000319C82CFB01FB0AFC01FC0A2D30CD2CFD
:10099000FB01FB0AFC01FC0A20300A128A11FE242A
:1009A0000A128A11FB01FB0A023083120313A8000A
:1009B0002808FC003908303E0A128A11FE240A1267
:1009C0008A11FB01FB0A033083120313A8002808D5
:1009D000FC003A08303E0A128A11FE240A128A11DB
:1009E000FB01FB0A053083120313A8002808FC0052
:1009F0003B08303E0A128A11FE24080083120313BA
:100A0000A30020300A128A11DF200A128A11013055
:100A10000A128A11DF200A128A1121300A128A1161
:100A2000DF200A128A110D3083120313A000200860
:100A3000F0007C080A128A1190200A128A110A1208
:100A40008A11DF200A128A110D3083120313A000CD
:100A50002008F0007C080A128A1190200A128A11DC
:100A6000093E0A128A11DF200A128A1122300A1264
:100A70008A11DF200A128A117B080A128A11DF20EC
:100A80000A128A117B08013E0A128A11DF200A121B
:100A90008A110A128A117C200A128A118312031306
:100AA0004108F7004008F6000A128A1174200A1261
:100AB0008A114030F6000030F7000A128A117420C3
:100AC0000A128A1183120313A601053026020318A5
:100AD000FF2D2308E03EF000FF3003180030F10046
:100AE0000530F2000030F3000A128A11BE200A120B
:100AF0008A118312031326087007A0000030031820
:100B000001307107A10089302107FF00FC30200768
:100B100084000318FF0A0A128A1500200A128A119B
:100B2000A2002208A700A501A401271F9B2DC03009
:100B3000A0002008A507A71EA12D3030A000200886
:100B4000A507271EA72D0C30A0002008A507A71D6C
:100B5000AD2D0330A0002008A507271DB32DC03000
:100B6000A0002008A407A71CB92D3030A000200841
:100B7000A407271CBF2D0C30A0002008A4072408C0
:100B8000A000A1012008F6002108F7000A128A112E
:100B900074200A128A11831203132508A000A101F0
:100BA0002008F6002108F7000A128A1174200A12A0
:100BB0008A11831203132408A000A1012008F60063
:100BC0002108F7000A128A1174200A128A1183126E
:100BD00003132508A000A1012008F6002108F70052
:100BE0000A128A1174200A128A1101308312031327
:100BF000A0002008A60705302602031C692D0A1252
:100C00008A1186200A128A1120300A128A11DF20E6
:100C10000A128A1100300A128A11DF20080083129A
:100C20000313B701B8010630831603139F001D306C
:100C300087003F3086008510811394171413093004
:100C40009300283083120313940083160313910139
:100C5000023083120313B6000430B500BA30B4007A
:100C6000B40B302EB50B302EB60B302E0000831295
:100C7000031385100A128A117E210A128A110A12A0
:100C80008A1161220A128A11FB01FB0A04308312C5
:100C90000313B4003408FC002E300A128A11FE241B
:100CA0000A128A11FB01FB0A073083120313B400F6
:100CB0003408FC0080300A128A11FE240A128A11BC
:100CC000FB01FB0A083083120313B4003408FC0054
:100CD00043300A128A11FE240A128A110A128A115A
:100CE00012220A128A11063083120313B400340848
:100CF000FB000C30B5003508FC0080300A128A1168
:100D00005E230A128A11063083120313B4003408DA
:100D1000FB000D30B5003508FC0043300A128A1183
:100D20005E230A128A110B30831203133802031C4C
:100D3000EF2E0B30B4003408B8003E08013EB4007A
:100D40003F080318013E003EB5004308803AB60054
:100D50003508803A3602031DAF2E340842020318CC
:100D6000CE2E8312031385140430B4003408FB0024
:100D70000730B5003508FC004F300A128A115E2397
:100D80000A128A11043083120313B4003408FB00E2
:100D90000830B5003508FC004E30EA2E83120313EC
:100DA00085100430B4003408FB000730B500350866
:100DB000FC0020300A128A115E230A128A110430C4
:100DC00083120313B4003408FB000830B500350863
:100DD000FC0020300A128A115E230A128A110A12BC
:100DE0008A11FC230A128A110A128A11B1220A12EC
:100DF0008A110B3083120313B6002630B50066301B
:100E0000B400B40B012FB50B012FB60B012F082F27
:100E1000013083120313B4003408B807061D6E2F87
:100E2000932E0230B6000430B500BA30B400B40BD3
:100E3000172FB50B172FB60B172F00000630831294
:100E40000313B4003408FB000230B5003508FC0081
:100E500020300A128A115E230A128A110630831288
:100E60000313B4003408FB000330B5003508FC0060
:100E700020300A128A115E230A128A110630831268
:100E80000313B4003408FB000430B5003508FC003F
:100E900053300A128A115E230A128A110630831215
:100EA0000313B4003408FB000530B5003508FC001E
:100EB00045300A128A115E230A128A110630831203
:100EC0000313B4003408FB000630B5003508FC00FD
:100ED00054300A128A115E230A128A1183120313F4
:100EE0000619C22F112F0230B6000430B500BA30F7
:100EF000B400B40B792FB50B792FB60B792F000006
:100F0000831203138618B701831203138618C22FA6
:100F10000130C2070318C30A0030C3070130B40010
:100F20003408B707633042064304031D992FC201FA
:100F3000C3010A128A11B1220A128A1105308312E2
:100F400003133702031CB22F0330B6008A30B500FA
:100F50005630B400B40BAA2FB50BAA2FB60BAA2F8C
:100F6000B12F842F0B3083120313B6002630B50047
:100F70006630B400B40BBA2FB50BBA2FB60BBA2F2C
:100F8000C12F842F061DD92F732F0A128A11122206
:100F90000A128A110B3083120313B6002630B500F3
:100FA0006630B400B40BD22FB50BD22FB60BD22FB4
:100FB000D92F831203130619932EC52FC401B9012B
:100FC000BA01BB01BC01BD01BE01BF010A128A11F9
:100FD00070200A128A11C0000A128A1171200A12A6
:100FE0008A11C1000A128A1172200A128A11C200E3
:100FF0000A128A117320C30083010A128A110F2E6C
:10100000FF1B0A2883137F1883170008840A03191B
:10101000FF0A08007F087F398A000408840A031940
:10102000FF0A8200003400340034003400340034FD
:1010300000345F34003400340034073400340734A3
:10104000003414347F3414347F34143424342A3478
:101050007F342A3412342334133408346434623431
:101060003634493455342234503400340534033492
:101070000034003400341C34223441340034003451
:10108000413422341C34003408342A341C342A34C9
:101090000834083408343E340834083400345034FA
:1010A0003034003400340834083408340834083448
:1010B0000034603460340034003420341034083498
:1010C000043402343E344134413441343E3400343B
:1010D00042347F3440340034423461345134493432
:1010E00046342134413445344B34313418341434CB
:1010F00012347F3410342734453445344534393480
:101100003C344A344934493430340134713409347C
:1011100005340334363449344934493436340634DA
:101120004934493429341E340034363436340034DA
:10113000003400345634363400340034003408347B
:101140001434223441341434143414341434143424
:10115000413422341434083400340234013451341C
:101160000934063432344934793441343E347E34DF
:101170001134113411347E347F34493449344934C4
:1011800036343E3441344134413422347F344134A6
:10119000413422341C347F34493449344934413495
:1011A0007F3409340934013401343E34413441344C
:1011B000513432347F340834083408347F340034F6
:1011C00041347F34413400342034403441343F349E
:1011D00001347F3408341434223441347F344034B1
:1011E0004034403440347F340234043402347F3499
:1011F0007F340434083410347F343E344134413475
:1012000041343E347F3409340934093406343E34E1
:101210004134513421345E347F3409341934293453
:101220004634463449344934493431340134013484
:101230007F34013401343F344034403440343F344F
:101240001F342034403420341F347F342034183489
:1012500020347F3463341434083414346334033456
:10126000043478340434033461345134493445341B
:101270004334003400347F34413441340234043484
:10128000083410342034413441347F340034003485
:1012900004340234013402340434403440344034E1
:1012A00040344034003401340234043400342034F7
:1012B00054345434543478347F34483444344434CB
:1012C00038343834443444344434203438344434A6
:1012D000443448347F343834543454345434183417
:1012E00008347E340934013402340834143454345C
:1012F00054343C347F3408340434043478340034B7
:1013000044347D34403400342034403444343D345B
:10131000003400347F3410342834443400344134F1
:101320007F34403400347C3404341834043478344A
:101330007C34083404340434783438344434443449
:10134000443438347C3414341434143408340834B9
:101350001434143418347C347C34083404340434A5
:1013600008344834543454345434203404343F342E
:101370004434403420343C344034403420347C34D1
:101380001C342034403420341C343C344034303459
:1013900040343C34443428341034283444340C343D
:1013A0005034503450343C344434643454344C3429
:1013B00044340034083436344134003400340034CA
:1013C0007F3400340034003441343634083400347F
:1013D000083408342A341C34083408341C342A34C1
:1013E0000834083400340634093409340634083427
:1013F00008341C343E347F3400340034003400346C
:101400000034003400345F340034003400340734D6
:1014100000340734003414347F3414347F341434EB
:1014200024342A347F342A341234233413340834D5
:101430006434623436344934553422345034003400
:10144000053403340034003400341C342234413475
:1014500000340034413422341C34003408342A343B
:101460001C342A340834083408343E340834083430
:101470000034503430340034003408340834083434
:1014800008340834003460346034003400342034CC
:1014900010340834043402343E344134413441348D
:1014A0003E34003442347F344034003442346134BA
:1014B0005134493446342134413445344B34313489
:1014C0001834143412347F341034273445344534FE
:1014D000453439343C344A344934493430340134A5
:1014E00071340934053403343634493449344934C9
:1014F000363406344934493429341E340034363401
:101500003634003400340034563436340034003479
:101510000034083414342234413414341434143470
:101520001434143441342234143408340034023472
:101530000134513409340634323449347934413475
:101540003E347E341134113411347E347F344934C6
:101550004934493436343E34413441344134223400
:101560007F344134413422341C347F34493449348B
:10157000493441347F3409340934013401343E3470
:1015800041344134513432347F340834083408341F
:101590007F34003441347F344134003420344034CB
:1015A00041343F3401347F3408341434223441341C
:1015B0007F3440344034403440347F340234043487
:1015C00002347F347F340434083410347F343E34A2
:1015D0004134413441343E347F34093409340934D0
:1015E00006343E344134513421345E347F3409347E
:1015F0001934293446344634493449344934313471
:10160000013401347F34013401343F3440344034F8
:1016100040343F341F342034403420341F347F346E
:101620002034183420347F346334143408341434B0
:10163000633403340434783404340334613451346F
:10164000493445344334003400347F344134413428
:1016500002340434083410342034413441347F34AB
:10166000003400340434023401340234043440348D
:1016700040344034403440340034013402340434C3
:101680000034203454345434543478347F3448345F
:1016900044344434383438344434443444342034C6
:1016A00038344434443448347F3438345434543433
:1016B0005434183408347E34093401340234083484
:1016C0001434543454343C347F34083404340434F3
:1016D0007834003444347D34403400342034403491
:1016E00044343D34003400347F34103428344434DE
:1016F000003441347F34403400347C3404341834B2
:10170000043478347C340834043404347834383481
:1017100044344434443438347C341434143414346D
:10172000083408341434143418347C347C340834C9
:101730000434043408344834543454345434203495
:1017400004343F344434403420343C344034403456
:1017500020347C341C342034403420341C343C3459
:101760004034303440343C34443428341034283449
:1017700044340C345034503450343C3444346434A5
:1017800054344C3444340034083436344134003456
:10179000003400347F3400340034003441343634B3
:1017A00008340034083408342A341C34083408342B
:1017B0001C342A340834083400340634093409341B
:0C17C0000634083408341C343E347F34F6
:02400E007AFF37
:00000001FF
