:060000000A128A11122809
:10000800FE00030EF1000408F2000A08F300831250
:1000180003137F08F4000A128A11E4280A128A11CD
:100028001528F80183134130840053300A128A11CD
:10003800F8200A128A110A128A1571230A128A11E3
:10004800F5000A128A1572230A128A11F6000A129A
:100058008A157323F70083010A128A11E62C0A30E5
:1000680083120313A9000030AA000A30A000003050
:10007800A1005008B000B1013008A2003108A30067
:100088000A128A15A0250A128A118312031321085D
:10009800AC002008AB000A128A1553250A128A11EF
:1000A800831203132908B2003208C1000A30A900DC
:1000B8000030AA005008B000B1013008AB00310888
:1000C800AC000A128A1553250A128A1183120313E7
:1000D8002908B2003208C2000A30A9000030AA007C
:1000E8000A30A0000030A1005108B000B10130086A
:1000F800A2003108A3000A128A15A0250A128A1143
:10010800831203132108AC002008AB000A128A15D9
:1001180053250A128A11831203132908B2003208E0
:10012800C3000A30A9000030AA005108B000B1018C
:100138003008AB003108AC000A128A1553250A12A0
:100148008A11831203132908B2003208C400A601D9
:10015800A60A0230B0003008A7004108303E0A1253
:100168008A118F260A128A1183120313A601A60A7E
:100178000330B0003008A7004208303E0A128A1146
:100188008F260A128A1183120313A601A60A0530C4
:10019800B0003008A7004308303E0A128A118F26A3
:1001A8000A128A1183120313A601A60A0630B000A8
:1001B8003008A7004408303E0A128A118F2608002A
:1001C8000C1DED280C11D201D20A0130F000700884
:1001D800CF077408FF0073088A0072088400710E44
:1001E8008300FE0E7E0E090064008001840A040666
:1001F800031900340406F928FF1B0A2983137F1802
:1002080083170008840A0319FF0A08007F087F394A
:100218008A000408840A0319FF0A820000340034A3
:10022800003400340034003400345F3400340034C7
:100238000034073400340734003414347F34143461
:100248007F34143424342A347F342A341234233447
:10025800133408346434623436344934553422341F
:1002680050340034053403340034003400341C3472
:100278002234413400340034413422341C340034F4
:1002880008342A341C342A340834083408343E34F8
:10029800083408340034503430340034003408341E
:1002A80008340834083408340034603460340034C6
:1002B8000034203410340834043402343E344134D9
:1002C800413441343E34003442347F3440340034C5
:1002D800423461345134493446342134413445344C
:1002E8004B3431341834143412347F3410342734F6
:1002F80045344534453439343C344A344934493436
:100308003034013471340934053403343634493413
:1003180049344934363406344934493429341E348E
:10032800003436343634003400340034563436342D
:100338000034003400340834143422344134143482
:100348001434143414341434413422341434083436
:100358000034023401345134093406343234493417
:10036800793441343E347E341134113411347E34BE
:100378007F3449344934493436343E344134413485
:10038800413422347F344134413422341C347F34A4
:1003980049344934493441347F3409340934013407
:1003A80001343E3441344134513432347F340834DA
:1003B800083408347F34003441347F344134003405
:1003C8002034403441343F3401347F340834143409
:1003D800223441347F3440344034403440347F3414
:1003E8000234043402347F347F3404340834103443
:1003F8007F343E344134413441343E347F3409340F
:100408000934093406343E344134513421345E34DD
:100418007F3409341934293446344634493449344C
:1004280049343134013401347F34013401343F34E8
:100438004034403440343F341F3420344034203476
:100448001F347F342034183420347F346334143418
:1004580008341434633403340434783404340334EF
:1004680061345134493445344334003400347F34E2
:1004780041344134023404340834103420344134D3
:1004880041347F34003400340434023401340234FB
:10049800043440344034403440344034003401346F
:1004A800023404340034203454345434543478340A
:1004B8007F3448344434443438343834443444344D
:1004C8004434203438344434443448347F34383461
:1004D800543454345434183408347E3409340134D0
:1004E800023408341434543454343C347F340834DB
:1004F800043404347834003444347D3440340034D3
:100508002034403444343D34003400347F341034D3
:1005180028344434003441347F34403400347C344B
:1005280004341834043478347C34083404340434FF
:100538007834383444344434443438347C341434CF
:1005480014341434083408341434143418347C340F
:100558007C3408340434043408344834543454346F
:100568005434203404343F344434403420343C344C
:100578004034403420347C341C342034403420341B
:100588001C343C344034303440343C344434283413
:100598001034283444340C345034503450343C34FF
:1005A8004434643454344C344434003408343634D9
:1005B80041340034003400347F34003400340034D3
:1005C8004134363408340034083408342A341C34AE
:1005D800083408341C342A34083408340034063407
:1005E800093409340634083408341C343E347F3462
:1005F80000340034003400340034003400345F34F4
:100608000034003400340734003407340034143420
:100618007F3414347F34143424342A347F342A3415
:10062800123423341334083464346234363449348D
:100638005534223450340034053403340034003443
:1006480000341C3422344134003400344134223420
:100658001C34003408342A341C342A34083408344E
:1006680008343E340834083400345034303400340C
:10067800003408340834083408340834003460344A
:100688006034003400342034103408340434023424
:100698003E344134413441343E34003442347F34B2
:1006A80040340034423461345134493446342134BE
:1006B800413445344B3431341834143412347F34D3
:1006C8001034273445344534453439343C344A34BD
:1006D800493449343034013471340934053403342D
:1006E8003634493449344934363406344934493483
:1006F80029341E340034363436340034003400349F
:100708005634363400340034003408341434223477
:100718004134143414341434143414344134223429
:1007280014340834003402340134513409340634A2
:1007380032344934793441343E347E3411341134FE
:1007480011347E347F3449344934493436343E34A4
:1007580041344134413422347F34413441342234E9
:100768001C347F3449344934493441347F340934A2
:100778000934013401343E34413441345134323483
:100788007F340834083408347F34003441347F34EB
:10079800413400342034403441343F3401347F3410
:1007A80008341434223441347F34403440344034E3
:1007B80040347F340234043402347F347F340434C8
:1007C800083410347F343E344134413441343E34AB
:1007D8007F3409340934093406343E344134513401
:1007E80021345E347F34093419342934463446348C
:1007F8004934493449343134013401347F340134C3
:1008080001343F344034403440343F341F342034C2
:10081800403420341F347F342034183420347F345B
:1008280063341434083414346334033404347834AB
:100838000434033461345134493445344334003486
:1008480000347F34413441340234043408341034E1
:100858002034413441347F340034003404340234C9
:100868000134023404344034403440344034403499
:100878000034013402340434003420345434543401
:10088800543478347F344834443444343834383435
:1008980044344434443420343834443444344834BC
:1008A8007F343834543454345434183408347E344F
:1008B80009340134023408341434543454343C3484
:1008C8007F340834043404347834003444347D34B8
:1008D800403400342034403444343D34003400344F
:1008E8007F34103428344434003441347F34403465
:1008F80000347C3404341834043478347C340834B8
:100908000434043478343834443444344434383483
:100918007C3414341434143408340834143414343F
:1009280018347C347C3408340434043408344834AF
:10093800543454345434203404343F34443440342C
:1009480020343C344034403420347C341C3420344B
:10095800403420341C343C344034303440343C344B
:10096800443428341034283444340C34503450344B
:1009780050343C344434643454344C3444340034B7
:100988000834363441340034003400347F340034C1
:100998000034003441343634083400340834083420
:1009A8002A341C34083408341C342A3408340834F3
:1009B80000340634093409340634083408341C3445
:1009C8003E347F3483120313C001BF0106308316FF
:1009D80003139F001D3087003F30860085100511E6
:1009E80081130C30831203139D0064309B00053083
:1009F8009200C7308316031392000B30831203133F
:100A080097000230960070309500233090008B17C5
:100A18000B17831603130C1594171413093093003E
:100A280028308312031394008316031391010230B4
:100A380083120313BE000430BD00BA30BC00BC0BE7
:100A4800232DBD0B232DBE0B232D00000A128A1562
:100A58000C250A128A110A128A11A6270A128A116B
:100A680083120313A601A60A0430BC003C08A700A1
:100A78003A300A128A118F260A128A110430831218
:100A88000313BC003C08A6000430BD003D08A700C5
:100A98002E300A128A118F260A128A110430831204
:100AA8000313BC003C08A6000730BD003D08A700A2
:100AB80080300A128A118F260A128A110430831292
:100AC8000313BC003C08A6000830BD003D08A70081
:100AD80043300A128A118F260A128A110A128A11C1
:100AE80033200A128A11902D83120313D101D001E9
:100AF8000A128A1133200A128A110330831203134F
:100B0800BE008A30BD005630BC00BC0B892DBD0B21
:100B1800892DBE0B892D902D831203130618962D4F
:100B2800861C782D0618C001831203130618D52DCC
:100B38000618A02D861CD52D0130BC003C08D10715
:100B48000130BC003C08C0073C3051060319D101F4
:100B58000A128A1133200A128A11053083120313EC
:100B68004002031CC52D0330BE008A30BD0056303C
:100B7800BC00BC0BBD2DBD0BBD2DBE0BBD2DC42DAA
:100B8800982D0B3083120313BE002630BD0066304B
:100B9800BC00BC0BCD2DBD0BCD2DBE0BCD2DD42D4A
:100BA800982D8618C001831203138618142E061870
:100BB800DF2D861C142E0130BC003C08D007013004
:100BC800BC003C08C007643050060319D0010A1263
:100BD8008A1133200A128A11053083120313400246
:100BE800031C042E0330BE008A30BD005630BC0002
:100BF800BC0BFC2DBD0BFC2DBE0BFC2D032ED72DE5
:100C08000B3083120313BE002630BD006630BC00D3
:100C1800BC0B0C2EBD0B0C2EBE0B0C2E132ED72D81
:100C28000619662E5008031D2A2E5108031D2A2E68
:100C3800662E0330BE008A30BD005630BC00BC0BA7
:100C4800232EBD0B232EBE0B232E2A2E8312031315
:100C5800061D1D2EBF01BF0A662E83120313510AFB
:100C6800031D3F2E3B30BC003C08D100500803193F
:100C78003F2E0130D0020A128A1133200A128A113B
:100C880083120313061D562E5C2E0330BE008A30D5
:100C9800BD005630BC00BC0B4F2EBD0B4F2EBE0BFB
:100CA8004F2E562E83120313061D492EBF01822E86
:100CB80003304F02031C662ECF010A128A15F02654
:100CC8000A128A11831203133F080319822E52084D
:100CD8000319442ED2010130D1025008031D312ED0
:100CE8005108031D312EBF010A128A1133200A123E
:100CF8008A110A128A15FB250A128A1103308312F7
:100D080003134F02031C902DCF010A128A15F026F7
:100D18000A128A11902D83120313AB0020300A1295
:100D28008A15E7230A128A1101300A128A15E72365
:100D38000A128A1121300A128A15E7230A128A1127
:100D48000D3083120313A8002808A00027080A12F0
:100D58008A1590230A128A110A128A15E7230A12A1
:100D68008A110D3083120313A8002808A000270851
:100D78000A128A1590230A128A11093E0A128A1544
:100D8800E7230A128A1122300A128A15E7230A1267
:100D98008A118312031326080A128A15E7230A12F6
:100DA8008A11831203132608013E0A128A15E723C3
:100DB8000A128A110A128A157C230A128A117608E5
:100DC80083120313A1007508A0000A128A15742360
:100DD8000A128A11403083120313A0000030A100C8
:100DE8000A128A1574230A128A1183120313AE0198
:100DF80005302E020318962F2B08E03EA000FF3086
:100E080003180030A1000530A2000030A3000A1228
:100E18008A15C4230A128A11831203132E08200785
:100E2800A8000030031801302107A90082302907E3
:100E3800FF00FC30280784000318FF0A0A128A11F1
:100E480000210A128A11AA002A08AF00AD01AC01DC
:100E58002F1F322FC030A8002808AD07AF1E382F2B
:100E68003030A8002808AD072F1E3E2F0C30A800F0
:100E78002808AD07AF1D442F0330A8002808AD0788
:100E88002F1D4A2FC030A8002808AC07AF1C502FD0
:100E98003030A8002808AC072F1C562F0C30A800AB
:100EA8002808AC072C08A800A9012808A0002908D0
:100EB800A1000A128A1574230A128A1183120313D5
:100EC8002D08A800A9012808A0002908A1000A12D5
:100ED8008A1574230A128A11831203132C08A80096
:100EE800A9012808A0002908A1000A128A1574235C
:100EF8000A128A11831203132D08A800A9012808D1
:100F0800A0002908A1000A128A1574230A128A115E
:100F1800013083120313A8002808AE0705302E02FB
:100F2800031C002F0A128A1586230A128A11203000
:100F38000A128A15E7230A128A1100300A128A1542
:100F4800E723080083120313A701083027020318B8
:100F580008002708B03E0A128A15E7230A128A11E8
:100F680000300A128A15E7230A128A1110300A1271
:100F78008A15E7230A128A110A128A157C230A1293
:100F88008A11760883120313A1007508A0000A12BB
:100F98008A1574230A128A11403083120313A000A1
:100FA8000030A1000A128A1574230A128A118312CA
:100FB8000313A601803026020318F42F0030A00086
:100FC800A1000A128A1574230A128A1101308312A9
:100FD8000313A5002508A60780302602031CE22F6C
:100FE8000A128A1586230A128A1101308312031302
:080FF800A5002508A707A92F99
:1016E200783400340134831203138C1120089300E0
:1016F2008C190800792B831203138C1183160313A0
:10170200111483128C190800822B831203138C117B
:1017120083160313111583128C1908008C2B831264
:101722000313A300A201231C9A2B2008A100210865
:10173200A2070310A00D0310A30C2308031D942B72
:1017420022080800831603130612831203130612DB
:10175200EF30A000AC2BA00BAB2BAF2BB02B831622
:1017620003130616423083120313A000A00BB72BFB
:101772000000EF3083120313A000BF2BA00BBE2B7F
:10178200C22BC32B080083120313A401A501201C42
:10179200D02B2208A4070318A50A2308A5070130A5
:1017A2000310A20DA30DFF3E031DD12B0130031028
:1017B200A10CA00CFF3E031DD82B20082104031D01
:1017C200C82B2508A1002408A000080083120313D7
:1017D200A4000A128A157C230A128A15760883123B
:1017E2000313A1007508A0000A128A1574230A12B5
:1017F2008A15003083120313A000A1000A128A1571
:1018020074230A128A15831203132408A200A30167
:101812002208A0002308A1000A128A1574230A12C2
:101822008A150A128A1586230800831203132808D0
:1018320029040319452CAD01AD0AA91B2C2C01303A
:101842000310A80DA90DFF3E031D212C0130AC0091
:101852002C08AD071E2C29082B02031D322C280848
:101862002A02031C3A2C2808AA022908031CAB03EB
:10187200AB0201300310A90CA80CFF3E031D3B2C48
:101882000130AD02031D2C2C2B08A9002A08A80048
:10189200080083120313A601A701200821040319DB
:1018A200832CA501A50AA11B622C01300310A00DF7
:1018B200A10DFF3E031D572C0130A4002408A507EB
:1018C200542C01300310A60DA70DFF3E031D632CFF
:1018D20021082302031D6F2C20082202031C782CEE
:1018E2002008A2022108031CA303A302261401302C
:1018F2000310A10CA00CFF3E031D792C0130A502A0
:10190200031D622C2708A1002608A00008008312EC
:101912000313A201A301083023020318C12C83166A
:1019220003130612831203130612972C982C8316A4
:1019320003130616033083120313A000A00B9F2C7F
:10194200A22C83120313061EB32C0130A000230A1B
:10195200AC2C0310A00DFF3E031DAA2C2008A100F1
:101962002108A2073530A000A00BB52C013083124C
:101972000313A0002008A30708302302031C902CA5
:101982008316031306168312031322080800831218
:101992000313A100A201083022020318082D01300E
:1019A200A000220AD62C0310A00DFF3E031DD42C4A
:1019B200200821050319EF2C831603130612831244
:1019C20003130612E42CE52C831603130616353096
:1019D20083120313A000A00BEC2CFE2C831603131E
:1019E20006128312031306123530A000A00BF72C47
:1019F200831603130616FD2CFE2C013083120313EB
:101A0200A0002008A20708302202031CD02C831653
:101A1200031306160800AE300A128A15E7230A12CB
:101A22008A158D300A128A15E7230A128A15143094
:101A32000A128A15E7230A128A1520300A128A1519
:101A4200E7230A128A1500300A128A15E7230A12BE
:101A52008A15A1300A128A15E7230A128A15C8309C
:101A62000A128A15E7230A128A15DA300A128A152F
:101A7200E7230A128A1512300A128A15E7230A127C
:101A82008A1581300A128A15E7230A128A159F30B5
:101A92000A128A15E7230A128A15AF300A128A152A
:101AA200E723080083120313AF01AC1F5F2DAB09BC
:101AB200AC09AB0A0319AC0AAF01AF0AAA1F662D23
:101AC200A909AA09A90A0319AA0A29082A040319B1
:101AD200932DAE01AE0AAA1B7A2D01300310A90D77
:101AE200AA0DFF3E031D6F2D0130AD002D08AE077C
:101AF2006C2D2A082C02031D802D29082B02031CA1
:101B0200882D2908AB022A08031CAC03AC02013061
:101B12000310AA0CA90CFF3E031D892D0130AE0251
:101B2200031D7A2D2F0803199B2DAB09AC09AB0AB3
:101B32000319AC0A2C08AA002B08A900080083127A
:101B42000313A601A11FAC2DA009A109A00A031924
:101B5200A10AA601A60AA31FB72DA209A309A20AD8
:101B62000319A30A0130A4002408A606A701A801AC
:101B7200200821040319EE2DA501A50AA11BCD2DD4
:101B820001300310A00DA10DFF3E031DC22D013037
:101B9200A4002408A507BF2D01300310A70DA80D2E
:101BA200FF3E031DCE2D21082302031DDA2D20083E
:101BB2002202031CE32D2008A2022108031CA30316
:101BC200A302271401300310A10CA00CFF3E031D39
:101BD200E42D0130A502031DCD2D26080319F62D93
:101BE200A709A809A70A0319A80A2808A100270813
:101BF200A000080083120313B601A601A60A08304A
:101C0200B3003308A70081300A128A118F260A1204
:101C12008A15831203138510632E01308312031376
:101C2200B3003308B607B701B70A323037020318D8
:101C32003A2E05150630B4003030B300B30B1F2E18
:101C4200B40B1F2E00008312031305110630B400DB
:101C52003030B300B30B2B2EB40B2B2E000001300F
:101C620083120313B3003308B70732303702031C61
:101C72001A2E0B30B5002630B4006630B300B30B19
:101C8200402EB40B402EB50B402E472E0130F806E5
:101C9200781C552E83120313A601A60A0830B3003E
:101CA2003308A70020305E2E83120313A601A60A72
:101CB2000830B3003308A70081300A128A118F2638
:101CC2000A128A151E308312031336020318772E66
:101CD20006190E2EA601A60A0830B3003308A70083
:101CE20020300A128A118F260A128A1583120313D0
:101CF200B601CA2E013083120313B3003308B607AC
:101D0200B701B70A7D3037020318A12E05158510D9
:101D12006330B300B30B8B2E8E2E83120313051187
:101D220085146330B300B30B942E972E01308312C7
:101D32000313B3003308B7077D303702031C872E25
:101D42000B30B5002630B4006630B300B30BA72EBB
:101D5200B40BA72EB50BA72EAE2E0130F806781CB9
:101D6200BC2E83120313A601A60A0830B30033085F
:101D7200A7002030C52E83120313A601A60A08303D
:101D8200B3003308A70081300A128A118F260A1283
:101D92008A15AA308312031336020318DE2E06199F
:101DA2007B2EA601A60A0830B3003308A700203014
:101DB2000A128A118F260A128A150A128A113320F0
:101DC2000A128A1583120313A601A60A0830B30069
:101DD2003308A70020300A128A118F2608000A123F
:101DE2008A15A3230A128A15CC300A128A15C8242E
:101DF2000A128A15BE300A128A15C8240A128A15D6
:101E02000A128A1588240A128A1583120313B00053
:101E1200B1013008B3003108B4000A128A158824CF
:101E22000A128A1583120313B000B1013008B500FB
:101E32003108B6000A128A15A3230A128A150A1259
:101E42008A15A3230A128A15CC300A128A15C824CD
:101E52000A128A1544300A128A15C8240A128A15EF
:101E6200831203133608B1003508B0003008B10000
:101E7200B00133083007B80034080318340A3107B8
:101E8200B900B91F522FB701B70A3809B000390992
:101E9200B100B00A0319B10A3008BA003108BB0018
:101EA200572FB7013908BB003808BA000F303A057E
:101EB200A00000303B05A1000A30A2000030A300C0
:101EC2000A128A15C4230A128A15831203132008E0
:101ED200B0002108B10004300310B10CB00CFF3E79
:101EE200031D6D2F3008B2003208CB003A0E0F39B5
:101EF200BA003B0EF039BA043B0E0F39BB000A3070
:101F0200A8000030A9000A30A0000030A1003B0860
:101F1200A3003A08A2000A128A154A240A128A1554
:101F2200831203132108AB002008AA000A128A15A3
:101F320016240A128A15831203132808B0003008E7
:101F4200C9000A30A8000030A9003B08AB003A08DB
:101F5200AA000A128A1516240A128A15831203137A
:101F62002808B0003008CA0037080319C02F04300F
:101F7200B0003008A600A701A70A2D30C92F0430EF
:101F820083120313B0003008A600A701A70A20306D
:101F92000A128A118F260A128A1504308312031339
:101FA200B0003008A6000230B1003108A70049088D
:101FB200303E0A128A118F260A128A1504308312C1
:101FC2000313B0003008A6000330B1003108A700A7
:101FD2004A08303E0A128A118F260A128A150430E4
:101FE20083120313B0003008A6000530B100310897
:0E1FF200A7004B08303E0A128A118F26080005
:02400E007AFF37
:00000001FF
